{
  "contractName": "ElectionBetting",
  "abi": [
    {
      "inputs": [
        {
          "internalType": "uint256",
          "name": "_bettingEndDateTime",
          "type": "uint256"
        }
      ],
      "stateMutability": "nonpayable",
      "type": "constructor"
    },
    {
      "anonymous": false,
      "inputs": [
        {
          "indexed": true,
          "internalType": "address",
          "name": "better",
          "type": "address"
        },
        {
          "indexed": true,
          "internalType": "enum ElectionBetting.Outcome",
          "name": "outcome",
          "type": "uint8"
        },
        {
          "indexed": false,
          "internalType": "uint256",
          "name": "amount",
          "type": "uint256"
        }
      ],
      "name": "BetPlaced",
      "type": "event"
    },
    {
      "anonymous": false,
      "inputs": [
        {
          "indexed": true,
          "internalType": "enum ElectionBetting.Outcome",
          "name": "winner",
          "type": "uint8"
        }
      ],
      "name": "ElectionResolved",
      "type": "event"
    },
    {
      "anonymous": false,
      "inputs": [
        {
          "indexed": true,
          "internalType": "address",
          "name": "claimant",
          "type": "address"
        },
        {
          "indexed": true,
          "internalType": "enum ElectionBetting.Outcome",
          "name": "outcome",
          "type": "uint8"
        },
        {
          "indexed": false,
          "internalType": "uint256",
          "name": "amount",
          "type": "uint256"
        }
      ],
      "name": "WinningsClaimed",
      "type": "event"
    },
    {
      "inputs": [
        {
          "internalType": "address",
          "name": "",
          "type": "address"
        },
        {
          "internalType": "enum ElectionBetting.Outcome",
          "name": "",
          "type": "uint8"
        }
      ],
      "name": "bets",
      "outputs": [
        {
          "internalType": "uint256",
          "name": "",
          "type": "uint256"
        }
      ],
      "stateMutability": "view",
      "type": "function",
      "constant": true
    },
    {
      "inputs": [],
      "name": "bettingEndDateTime",
      "outputs": [
        {
          "internalType": "uint256",
          "name": "",
          "type": "uint256"
        }
      ],
      "stateMutability": "view",
      "type": "function",
      "constant": true
    },
    {
      "inputs": [],
      "name": "bettingEnded",
      "outputs": [
        {
          "internalType": "bool",
          "name": "",
          "type": "bool"
        }
      ],
      "stateMutability": "view",
      "type": "function",
      "constant": true
    },
    {
      "inputs": [
        {
          "internalType": "address",
          "name": "",
          "type": "address"
        }
      ],
      "name": "claimedWinnings",
      "outputs": [
        {
          "internalType": "uint256",
          "name": "",
          "type": "uint256"
        }
      ],
      "stateMutability": "view",
      "type": "function",
      "constant": true
    },
    {
      "inputs": [
        {
          "internalType": "enum ElectionBetting.Outcome",
          "name": "",
          "type": "uint8"
        }
      ],
      "name": "currentOdds",
      "outputs": [
        {
          "internalType": "uint256",
          "name": "",
          "type": "uint256"
        }
      ],
      "stateMutability": "view",
      "type": "function",
      "constant": true
    },
    {
      "inputs": [],
      "name": "electionResolved",
      "outputs": [
        {
          "internalType": "bool",
          "name": "",
          "type": "bool"
        }
      ],
      "stateMutability": "view",
      "type": "function",
      "constant": true
    },
    {
      "inputs": [],
      "name": "owner",
      "outputs": [
        {
          "internalType": "address",
          "name": "",
          "type": "address"
        }
      ],
      "stateMutability": "view",
      "type": "function",
      "constant": true
    },
    {
      "inputs": [
        {
          "internalType": "enum ElectionBetting.Outcome",
          "name": "",
          "type": "uint8"
        }
      ],
      "name": "totalBets",
      "outputs": [
        {
          "internalType": "uint256",
          "name": "",
          "type": "uint256"
        }
      ],
      "stateMutability": "view",
      "type": "function",
      "constant": true
    },
    {
      "inputs": [],
      "name": "winner",
      "outputs": [
        {
          "internalType": "enum ElectionBetting.Outcome",
          "name": "",
          "type": "uint8"
        }
      ],
      "stateMutability": "view",
      "type": "function",
      "constant": true
    },
    {
      "inputs": [
        {
          "internalType": "enum ElectionBetting.Outcome",
          "name": "_outcome",
          "type": "uint8"
        }
      ],
      "name": "placeBet",
      "outputs": [],
      "stateMutability": "payable",
      "type": "function",
      "payable": true
    },
    {
      "inputs": [],
      "name": "getOdds",
      "outputs": [
        {
          "components": [
            {
              "internalType": "uint256",
              "name": "democrat",
              "type": "uint256"
            },
            {
              "internalType": "uint256",
              "name": "republican",
              "type": "uint256"
            }
          ],
          "internalType": "struct ElectionBetting.Odds",
          "name": "",
          "type": "tuple"
        }
      ],
      "stateMutability": "view",
      "type": "function",
      "constant": true
    },
    {
      "inputs": [
        {
          "internalType": "enum ElectionBetting.Outcome",
          "name": "_winner",
          "type": "uint8"
        }
      ],
      "name": "resolveElection",
      "outputs": [],
      "stateMutability": "nonpayable",
      "type": "function"
    },
    {
      "inputs": [],
      "name": "claimWinnings",
      "outputs": [],
      "stateMutability": "nonpayable",
      "type": "function"
    }
  ],
  "bytecode": "0x608060405234801562000010575f80fd5b5060405162001d8238038062001d828339818101604052810190620000369190620003e2565b335f806101000a81548173ffffffffffffffffffffffffffffffffffffffff021916908373ffffffffffffffffffffffffffffffffffffffff160217905550806001819055506200008c6200009360201b60201c565b5062000554565b5f60045f600180811115620000ad57620000ac62000412565b5b6001811115620000c257620000c162000412565b5b81526020019081526020015f205460045f806001811115620000e957620000e862000412565b5b6001811115620000fe57620000fd62000412565b5b81526020019081526020015f20546200011891906200046c565b90505f8103620001b857670de0b6b3a764000060055f80600181111562000144576200014362000412565b5b600181111562000159576200015862000412565b5b81526020019081526020015f2081905550670de0b6b3a764000060055f6001808111156200018c576200018b62000412565b5b6001811115620001a157620001a062000412565b5b81526020019081526020015f2081905550620003a3565b5f8060045f806001811115620001d357620001d262000412565b5b6001811115620001e857620001e762000412565b5b81526020019081526020015f2054146200023e5760045f80600181111562000215576200021462000412565b5b60018111156200022a576200022962000412565b5b81526020019081526020015f205462000248565b670de0b6b3a76400005b90505f8060045f60018081111562000265576200026462000412565b5b60018111156200027a576200027962000412565b5b81526020019081526020015f205414620002d05760045f600180811115620002a757620002a662000412565b5b6001811115620002bc57620002bb62000412565b5b81526020019081526020015f2054620002da565b670de0b6b3a76400005b905081670de0b6b3a764000084620002f39190620004a6565b620002ff91906200051d565b60055f80600181111562000318576200031762000412565b5b60018111156200032d576200032c62000412565b5b81526020019081526020015f208190555080670de0b6b3a764000084620003559190620004a6565b6200036191906200051d565b60055f6001808111156200037a576200037962000412565b5b60018111156200038f576200038e62000412565b5b81526020019081526020015f208190555050505b50565b5f80fd5b5f819050919050565b620003be81620003aa565b8114620003c9575f80fd5b50565b5f81519050620003dc81620003b3565b92915050565b5f60208284031215620003fa57620003f9620003a6565b5b5f6200040984828501620003cc565b91505092915050565b7f4e487b71000000000000000000000000000000000000000000000000000000005f52602160045260245ffd5b7f4e487b71000000000000000000000000000000000000000000000000000000005f52601160045260245ffd5b5f6200047882620003aa565b91506200048583620003aa565b9250828201905080821115620004a0576200049f6200043f565b5b92915050565b5f620004b282620003aa565b9150620004bf83620003aa565b9250828202620004cf81620003aa565b91508282048414831517620004e957620004e86200043f565b5b5092915050565b7f4e487b71000000000000000000000000000000000000000000000000000000005f52601260045260245ffd5b5f6200052982620003aa565b91506200053683620003aa565b925082620005495762000548620004f0565b5b828204905092915050565b61182080620005625f395ff3fe6080604052600436106100c1575f3560e01c80638da5cb5b1161007e578063bf3d00f511610058578063bf3d00f514610241578063c8c3316b14610269578063d2d2f3ef146102a5578063dfbf53ae146102e1576100c1565b80638da5cb5b146101d7578063b401faf114610201578063bacaa73914610217576100c1565b80631c758006146100c557806343046844146101015780634c5be5741461011d57806352f1fb3f1461014757806353288a161461017157806384d6dac0146101ad575b5f80fd5b3480156100d0575f80fd5b506100eb60048036038101906100e69190610fc5565b61030b565b6040516100f89190611008565b60405180910390f35b61011b60048036038101906101169190611044565b610320565b005b348015610128575f80fd5b506101316104e3565b60405161013e91906110ab565b60405180910390f35b348015610152575f80fd5b5061015b61056f565b6040516101689190611008565b60405180910390f35b34801561017c575f80fd5b50610197600480360381019061019291906110c4565b610575565b6040516101a49190611008565b60405180910390f35b3480156101b8575f80fd5b506101c1610595565b6040516101ce919061111c565b60405180910390f35b3480156101e2575f80fd5b506101eb6105a7565b6040516101f89190611144565b60405180910390f35b34801561020c575f80fd5b506102156105ca565b005b348015610222575f80fd5b5061022b610a92565b604051610238919061111c565b60405180910390f35b34801561024c575f80fd5b5061026760048036038101906102629190611044565b610aa5565b005b348015610274575f80fd5b5061028f600480360381019061028a9190611044565b610c4d565b60405161029c9190611008565b60405180910390f35b3480156102b0575f80fd5b506102cb60048036038101906102c69190611044565b610c62565b6040516102d89190611008565b60405180910390f35b3480156102ec575f80fd5b506102f5610c77565b60405161030291906111d0565b60405180910390f35b6006602052805f5260405f205f915090505481565b6001544210610364576040517f08c379a000000000000000000000000000000000000000000000000000000000815260040161035b90611243565b60405180910390fd5b5f34116103a6576040517f08c379a000000000000000000000000000000000000000000000000000000000815260040161039d906112d1565b60405180910390fd5b3460035f3373ffffffffffffffffffffffffffffffffffffffff1673ffffffffffffffffffffffffffffffffffffffff1681526020019081526020015f205f8360018111156103f8576103f761115d565b5b600181111561040a5761040961115d565b5b81526020019081526020015f205f828254610425919061131c565b925050819055503460045f8360018111156104435761044261115d565b5b60018111156104555761045461115d565b5b81526020019081526020015f205f828254610470919061131c565b9250508190555061047f610c88565b8060018111156104925761049161115d565b5b3373ffffffffffffffffffffffffffffffffffffffff167f9f6b4cced64244a64465098f682029975b1614400b96bc6bd12c668083719166346040516104d89190611008565b60405180910390a350565b6104eb610f4f565b604051806040016040528060055f80600181111561050c5761050b61115d565b5b600181111561051e5761051d61115d565b5b81526020019081526020015f2054815260200160055f6001808111156105475761054661115d565b5b60018111156105595761055861115d565b5b81526020019081526020015f2054815250905090565b60015481565b6003602052815f5260405f20602052805f5260405f205f91509150505481565b60025f9054906101000a900460ff1681565b5f8054906101000a900473ffffffffffffffffffffffffffffffffffffffff1681565b600260019054906101000a900460ff16610619576040517f08c379a0000000000000000000000000000000000000000000000000000000008152600401610610906113bf565b60405180910390fd5b5f60065f3373ffffffffffffffffffffffffffffffffffffffff1673ffffffffffffffffffffffffffffffffffffffff1681526020019081526020015f205414610698576040517f08c379a000000000000000000000000000000000000000000000000000000000815260040161068f9061144d565b60405180910390fd5b5f60035f3373ffffffffffffffffffffffffffffffffffffffff1673ffffffffffffffffffffffffffffffffffffffff1681526020019081526020015f205f60028054906101000a900460ff1660018111156106f7576106f661115d565b5b60018111156107095761070861115d565b5b81526020019081526020015f205411610757576040517f08c379a000000000000000000000000000000000000000000000000000000000815260040161074e906114db565b60405180910390fd5b5f60035f3373ffffffffffffffffffffffffffffffffffffffff1673ffffffffffffffffffffffffffffffffffffffff1681526020019081526020015f205f60028054906101000a900460ff1660018111156107b6576107b561115d565b5b60018111156107c8576107c761115d565b5b81526020019081526020015f205490505f60045f60028054906101000a900460ff1660018111156107fc576107fb61115d565b5b600181111561080e5761080d61115d565b5b81526020019081526020015f205490505f60045f6001808111156108355761083461115d565b5b60018111156108475761084661115d565b5b81526020019081526020015f205460045f80600181111561086b5761086a61115d565b5b600181111561087d5761087c61115d565b5b81526020019081526020015f2054610895919061131c565b90505f8282856108a591906114f9565b6108af9190611567565b90505f60035f3373ffffffffffffffffffffffffffffffffffffffff1673ffffffffffffffffffffffffffffffffffffffff1681526020019081526020015f205f60028054906101000a900460ff1660018111156109105761090f61115d565b5b60018111156109225761092161115d565b5b81526020019081526020015f20819055508060065f3373ffffffffffffffffffffffffffffffffffffffff1673ffffffffffffffffffffffffffffffffffffffff1681526020019081526020015f20819055505f3373ffffffffffffffffffffffffffffffffffffffff168260405161099a906115c4565b5f6040518083038185875af1925050503d805f81146109d4576040519150601f19603f3d011682016040523d82523d5f602084013e6109d9565b606091505b5050905080610a1d576040517f08c379a0000000000000000000000000000000000000000000000000000000008152600401610a1490611648565b60405180910390fd5b60028054906101000a900460ff166001811115610a3d57610a3c61115d565b5b3373ffffffffffffffffffffffffffffffffffffffff167fc733592b540ec5b16d51dd4213227b2094878ec4477d9e2c0ed75e5c9394f23284604051610a839190611008565b60405180910390a35050505050565b600260019054906101000a900460ff1681565b5f8054906101000a900473ffffffffffffffffffffffffffffffffffffffff1673ffffffffffffffffffffffffffffffffffffffff163373ffffffffffffffffffffffffffffffffffffffff1614610b32576040517f08c379a0000000000000000000000000000000000000000000000000000000008152600401610b29906116d6565b60405180910390fd5b600154421015610b77576040517f08c379a0000000000000000000000000000000000000000000000000000000008152600401610b6e9061173e565b60405180910390fd5b600260019054906101000a900460ff1615610bc7576040517f08c379a0000000000000000000000000000000000000000000000000000000008152600401610bbe906117cc565b60405180910390fd5b806002806101000a81548160ff02191690836001811115610beb57610bea61115d565b5b02179055506001600260016101000a81548160ff021916908315150217905550806001811115610c1e57610c1d61115d565b5b7f9645c21c88247fe435e894197ccf051358d78c4211a1790b357c84658a44679660405160405180910390a250565b6004602052805f5260405f205f915090505481565b6005602052805f5260405f205f915090505481565b60028054906101000a900460ff1681565b5f60045f600180811115610c9f57610c9e61115d565b5b6001811115610cb157610cb061115d565b5b81526020019081526020015f205460045f806001811115610cd557610cd461115d565b5b6001811115610ce757610ce661115d565b5b81526020019081526020015f2054610cff919061131c565b90505f8103610d9157670de0b6b3a764000060055f806001811115610d2757610d2661115d565b5b6001811115610d3957610d3861115d565b5b81526020019081526020015f2081905550670de0b6b3a764000060055f600180811115610d6957610d6861115d565b5b6001811115610d7b57610d7a61115d565b5b81526020019081526020015f2081905550610f4c565b5f8060045f806001811115610da957610da861115d565b5b6001811115610dbb57610dba61115d565b5b81526020019081526020015f205414610e095760045f806001811115610de457610de361115d565b5b6001811115610df657610df561115d565b5b81526020019081526020015f2054610e13565b670de0b6b3a76400005b90505f8060045f600180811115610e2d57610e2c61115d565b5b6001811115610e3f57610e3e61115d565b5b81526020019081526020015f205414610e8d5760045f600180811115610e6857610e6761115d565b5b6001811115610e7a57610e7961115d565b5b81526020019081526020015f2054610e97565b670de0b6b3a76400005b905081670de0b6b3a764000084610eae91906114f9565b610eb89190611567565b60055f806001811115610ece57610ecd61115d565b5b6001811115610ee057610edf61115d565b5b81526020019081526020015f208190555080670de0b6b3a764000084610f0691906114f9565b610f109190611567565b60055f600180811115610f2657610f2561115d565b5b6001811115610f3857610f3761115d565b5b81526020019081526020015f208190555050505b50565b60405180604001604052805f81526020015f81525090565b5f80fd5b5f73ffffffffffffffffffffffffffffffffffffffff82169050919050565b5f610f9482610f6b565b9050919050565b610fa481610f8a565b8114610fae575f80fd5b50565b5f81359050610fbf81610f9b565b92915050565b5f60208284031215610fda57610fd9610f67565b5b5f610fe784828501610fb1565b91505092915050565b5f819050919050565b61100281610ff0565b82525050565b5f60208201905061101b5f830184610ff9565b92915050565b6002811061102d575f80fd5b50565b5f8135905061103e81611021565b92915050565b5f6020828403121561105957611058610f67565b5b5f61106684828501611030565b91505092915050565b61107881610ff0565b82525050565b604082015f8201516110925f85018261106f565b5060208201516110a5602085018261106f565b50505050565b5f6040820190506110be5f83018461107e565b92915050565b5f80604083850312156110da576110d9610f67565b5b5f6110e785828601610fb1565b92505060206110f885828601611030565b9150509250929050565b5f8115159050919050565b61111681611102565b82525050565b5f60208201905061112f5f83018461110d565b92915050565b61113e81610f8a565b82525050565b5f6020820190506111575f830184611135565b92915050565b7f4e487b71000000000000000000000000000000000000000000000000000000005f52602160045260245ffd5b6002811061119b5761119a61115d565b5b50565b5f8190506111ab8261118a565b919050565b5f6111ba8261119e565b9050919050565b6111ca816111b0565b82525050565b5f6020820190506111e35f8301846111c1565b92915050565b5f82825260208201905092915050565b7f42657474696e6720706572696f642068617320656e64656400000000000000005f82015250565b5f61122d6018836111e9565b9150611238826111f9565b602082019050919050565b5f6020820190508181035f83015261125a81611221565b9050919050565b7f42657420616d6f756e74206d7573742062652067726561746572207468616e205f8201527f3000000000000000000000000000000000000000000000000000000000000000602082015250565b5f6112bb6021836111e9565b91506112c682611261565b604082019050919050565b5f6020820190508181035f8301526112e8816112af565b9050919050565b7f4e487b71000000000000000000000000000000000000000000000000000000005f52601160045260245ffd5b5f61132682610ff0565b915061133183610ff0565b9250828201905080821115611349576113486112ef565b5b92915050565b7f596f752063616e206f6e6c7920636c61696d2077696e6e696e677320616674655f8201527f722074686520656c656374696f6e20686173206265656e207265736f6c766564602082015250565b5f6113a96040836111e9565b91506113b48261134f565b604082019050919050565b5f6020820190508181035f8301526113d68161139d565b9050919050565b7f596f75206861766520616c726561647920636c61696d656420796f75722077695f8201527f6e6e696e67730000000000000000000000000000000000000000000000000000602082015250565b5f6114376026836111e9565b9150611442826113dd565b604082019050919050565b5f6020820190508181035f8301526114648161142b565b9050919050565b7f596f752068617665206e6f2062657473206f6e207468652077696e6e696e67205f8201527f6f7574636f6d6500000000000000000000000000000000000000000000000000602082015250565b5f6114c56027836111e9565b91506114d08261146b565b604082019050919050565b5f6020820190508181035f8301526114f2816114b9565b9050919050565b5f61150382610ff0565b915061150e83610ff0565b925082820261151c81610ff0565b91508282048414831517611533576115326112ef565b5b5092915050565b7f4e487b71000000000000000000000000000000000000000000000000000000005f52601260045260245ffd5b5f61157182610ff0565b915061157c83610ff0565b92508261158c5761158b61153a565b5b828204905092915050565b5f81905092915050565b50565b5f6115af5f83611597565b91506115ba826115a1565b5f82019050919050565b5f6115ce826115a4565b9150819050919050565b7f4661696c656420746f2073656e642077696e6e696e677320746f2074686520625f8201527f6574746572000000000000000000000000000000000000000000000000000000602082015250565b5f6116326025836111e9565b915061163d826115d8565b604082019050919050565b5f6020820190508181035f83015261165f81611626565b9050919050565b7f4f6e6c7920746865206f776e65722063616e2063616c6c20746869732066756e5f8201527f6374696f6e000000000000000000000000000000000000000000000000000000602082015250565b5f6116c06025836111e9565b91506116cb82611666565b604082019050919050565b5f6020820190508181035f8301526116ed816116b4565b9050919050565b7f42657474696e6720706572696f6420686173206e6f7420656e646564000000005f82015250565b5f611728601c836111e9565b9150611733826116f4565b602082019050919050565b5f6020820190508181035f8301526117558161171c565b9050919050565b7f456c656374696f6e2068617320616c7265616479206265656e207265736f6c765f8201527f6564000000000000000000000000000000000000000000000000000000000000602082015250565b5f6117b66022836111e9565b91506117c18261175c565b604082019050919050565b5f6020820190508181035f8301526117e3816117aa565b905091905056fea26469706673582212209da90130a7db4ced0d223c7a6af094a0ac94663f4803f35d5649bcd3db95573d64736f6c63430008150033",
  "immutableReferences": {},
  "source": "// SPDX-License-Identifier: MIT\npragma solidity ^0.8.0;\n\ncontract ElectionBetting {\n  enum Outcome { Democrat, Republican }\n\n  address public owner;\n  uint public bettingEndDateTime;\n  bool public bettingEnded;\n  bool public electionResolved;\n  Outcome public winner;\n\n  uint constant ODDS_PRECISION = 1e18;\n  struct Odds {\n    uint democrat;\n    uint republican;\n  }\n\n  mapping(address => mapping(Outcome => uint)) public bets;\n  mapping(Outcome => uint) public totalBets;\n\n  mapping(Outcome => uint) public currentOdds;\n\n  mapping(address => uint) public claimedWinnings;\n\n  event BetPlaced(address indexed better, Outcome indexed outcome, uint amount);\n  event WinningsClaimed(address indexed claimant, Outcome indexed outcome, uint amount);\n  event ElectionResolved(Outcome indexed winner);\n\n  constructor(uint _bettingEndDateTime) {\n    owner = msg.sender;\n    bettingEndDateTime = _bettingEndDateTime;\n\n    updateOdds();\n  }\n\n  modifier onlyOwner() {\n    require(msg.sender == owner, \"Only the owner can call this function\");\n    _;\n  }\n\n  modifier bettingOpen() {\n    require(block.timestamp < bettingEndDateTime, \"Betting period has ended\");\n    _;\n  }\n\n  function placeBet(Outcome _outcome) external payable bettingOpen {\n    require(msg.value > 0, \"Bet amount must be greater than 0\");\n\n    bets[msg.sender][_outcome] += msg.value;\n    totalBets[_outcome] += msg.value;\n\n    updateOdds();\n\n    emit BetPlaced(msg.sender, _outcome, msg.value);\n  }\n\n  function updateOdds() internal {\n    uint totalBetsAmount = totalBets[Outcome.Democrat] + totalBets[Outcome.Republican];\n    if (totalBetsAmount == 0) {\n      currentOdds[Outcome.Democrat] = ODDS_PRECISION;\n      currentOdds[Outcome.Republican] = ODDS_PRECISION;\n    } else {\n      uint democratBets = totalBets[Outcome.Democrat] == 0 ? ODDS_PRECISION : totalBets[Outcome.Democrat];\n      uint republicanBets = totalBets[Outcome.Republican] == 0 ? ODDS_PRECISION : totalBets[Outcome.Republican];\n\n      currentOdds[Outcome.Democrat] = totalBetsAmount * ODDS_PRECISION / democratBets;\n      currentOdds[Outcome.Republican] = totalBetsAmount * ODDS_PRECISION / republicanBets;\n    }\n  }\n\n  function getOdds() external view returns (Odds memory) {\n    return Odds(currentOdds[Outcome.Democrat], currentOdds[Outcome.Republican]);\n  }\n\n  function resolveElection(Outcome _winner) external onlyOwner {\n    require(block.timestamp >= bettingEndDateTime, \"Betting period has not ended\");\n    require(!electionResolved, \"Election has already been resolved\");\n\n    winner = _winner;\n    electionResolved = true;\n\n    emit ElectionResolved(_winner);\n  }\n\n  function claimWinnings() external {\n    require(electionResolved, \"You can only claim winnings after the election has been resolved\");\n    require(claimedWinnings[msg.sender] == 0, \"You have already claimed your winnings\");\n    require(bets[msg.sender][winner] > 0, \"You have no bets on the winning outcome\");\n\n    uint winningAmount = bets[msg.sender][winner];\n    uint totalWinningBetsAmount = totalBets[winner];\n    uint totalBetsAmount = totalBets[Outcome.Democrat] + totalBets[Outcome.Republican];\n\n    uint amountWon = (winningAmount * totalBetsAmount) / totalWinningBetsAmount;\n    bets[msg.sender][winner] = 0;\n    claimedWinnings[msg.sender] = amountWon;\n\n    (bool success, ) = msg.sender.call{value: amountWon}(\"\");\n    require(success, \"Failed to send winnings to the better\");\n\n    emit WinningsClaimed(msg.sender, winner, amountWon);\n  }\n}\n",
  "sourcePath": "/Users/seyithan/Documents/me.seyithan/us-election-betting/contracts/ElectionBetting.sol",
  "compiler": {
    "name": "solc",
    "version": "0.8.21+commit.d9974bed.Emscripten.clang"
  },
  "schemaVersion": "3.4.16",
  "updatedAt": "2024-07-27T09:10:10.211Z",
  "networkType": "ethereum",
  "devdoc": {
    "kind": "dev",
    "methods": {},
    "version": 1
  },
  "userdoc": {
    "kind": "user",
    "methods": {},
    "version": 1
  }
}