{
  "contractName": "ElectionBetting",
  "abi": [
    {
      "inputs": [
        {
          "internalType": "uint256",
          "name": "_bettingEndDateTime",
          "type": "uint256"
        }
      ],
      "stateMutability": "nonpayable",
      "type": "constructor"
    },
    {
      "anonymous": false,
      "inputs": [
        {
          "indexed": true,
          "internalType": "address",
          "name": "better",
          "type": "address"
        },
        {
          "indexed": true,
          "internalType": "enum ElectionBetting.Outcome",
          "name": "outcome",
          "type": "uint8"
        },
        {
          "indexed": false,
          "internalType": "uint256",
          "name": "amount",
          "type": "uint256"
        }
      ],
      "name": "BetPlaced",
      "type": "event"
    },
    {
      "anonymous": false,
      "inputs": [
        {
          "indexed": true,
          "internalType": "enum ElectionBetting.Outcome",
          "name": "winner",
          "type": "uint8"
        }
      ],
      "name": "ElectionResolved",
      "type": "event"
    },
    {
      "inputs": [
        {
          "internalType": "address",
          "name": "",
          "type": "address"
        },
        {
          "internalType": "enum ElectionBetting.Outcome",
          "name": "",
          "type": "uint8"
        }
      ],
      "name": "bets",
      "outputs": [
        {
          "internalType": "uint256",
          "name": "",
          "type": "uint256"
        }
      ],
      "stateMutability": "view",
      "type": "function",
      "constant": true
    },
    {
      "inputs": [],
      "name": "bettingEndDateTime",
      "outputs": [
        {
          "internalType": "uint256",
          "name": "",
          "type": "uint256"
        }
      ],
      "stateMutability": "view",
      "type": "function",
      "constant": true
    },
    {
      "inputs": [],
      "name": "bettingEnded",
      "outputs": [
        {
          "internalType": "bool",
          "name": "",
          "type": "bool"
        }
      ],
      "stateMutability": "view",
      "type": "function",
      "constant": true
    },
    {
      "inputs": [],
      "name": "electionResolved",
      "outputs": [
        {
          "internalType": "bool",
          "name": "",
          "type": "bool"
        }
      ],
      "stateMutability": "view",
      "type": "function",
      "constant": true
    },
    {
      "inputs": [],
      "name": "owner",
      "outputs": [
        {
          "internalType": "address",
          "name": "",
          "type": "address"
        }
      ],
      "stateMutability": "view",
      "type": "function",
      "constant": true
    },
    {
      "inputs": [
        {
          "internalType": "enum ElectionBetting.Outcome",
          "name": "",
          "type": "uint8"
        }
      ],
      "name": "totalBets",
      "outputs": [
        {
          "internalType": "uint256",
          "name": "",
          "type": "uint256"
        }
      ],
      "stateMutability": "view",
      "type": "function",
      "constant": true
    },
    {
      "inputs": [],
      "name": "winner",
      "outputs": [
        {
          "internalType": "enum ElectionBetting.Outcome",
          "name": "",
          "type": "uint8"
        }
      ],
      "stateMutability": "view",
      "type": "function",
      "constant": true
    },
    {
      "inputs": [
        {
          "internalType": "enum ElectionBetting.Outcome",
          "name": "_outcome",
          "type": "uint8"
        }
      ],
      "name": "placeBet",
      "outputs": [],
      "stateMutability": "payable",
      "type": "function",
      "payable": true
    },
    {
      "inputs": [
        {
          "internalType": "enum ElectionBetting.Outcome",
          "name": "_winner",
          "type": "uint8"
        }
      ],
      "name": "resolveElection",
      "outputs": [],
      "stateMutability": "nonpayable",
      "type": "function"
    }
  ],
  "bytecode": "0x608060405234801561000f575f80fd5b50604051610c1c380380610c1c833981810160405281019061003191906100b4565b335f806101000a81548173ffffffffffffffffffffffffffffffffffffffff021916908373ffffffffffffffffffffffffffffffffffffffff16021790555080600181905550506100df565b5f80fd5b5f819050919050565b61009381610081565b811461009d575f80fd5b50565b5f815190506100ae8161008a565b92915050565b5f602082840312156100c9576100c861007d565b5b5f6100d6848285016100a0565b91505092915050565b610b30806100ec5f395ff3fe608060405260043610610085575f3560e01c80638da5cb5b116100585780638da5cb5b14610135578063bacaa7391461015f578063bf3d00f514610189578063c8c3316b146101b1578063dfbf53ae146101ed57610085565b8063430468441461008957806352f1fb3f146100a557806353288a16146100cf57806384d6dac01461010b575b5f80fd5b6100a3600480360381019061009e9190610635565b610217565b005b3480156100b0575f80fd5b506100b96103d2565b6040516100c69190610678565b60405180910390f35b3480156100da575f80fd5b506100f560048036038101906100f091906106eb565b6103d8565b6040516101029190610678565b60405180910390f35b348015610116575f80fd5b5061011f6103f8565b60405161012c9190610743565b60405180910390f35b348015610140575f80fd5b5061014961040a565b604051610156919061076b565b60405180910390f35b34801561016a575f80fd5b5061017361042d565b6040516101809190610743565b60405180910390f35b348015610194575f80fd5b506101af60048036038101906101aa9190610635565b610440565b005b3480156101bc575f80fd5b506101d760048036038101906101d29190610635565b6105e8565b6040516101e49190610678565b60405180910390f35b3480156101f8575f80fd5b506102016105fd565b60405161020e91906107f7565b60405180910390f35b600154421061025b576040517f08c379a00000000000000000000000000000000000000000000000000000000081526004016102529061086a565b60405180910390fd5b5f341161029d576040517f08c379a0000000000000000000000000000000000000000000000000000000008152600401610294906108f8565b60405180910390fd5b3460035f3373ffffffffffffffffffffffffffffffffffffffff1673ffffffffffffffffffffffffffffffffffffffff1681526020019081526020015f205f8360018111156102ef576102ee610784565b5b600181111561030157610300610784565b5b81526020019081526020015f205f82825461031c9190610943565b925050819055503460045f83600181111561033a57610339610784565b5b600181111561034c5761034b610784565b5b81526020019081526020015f205f8282546103679190610943565b9250508190555080600181111561038157610380610784565b5b3373ffffffffffffffffffffffffffffffffffffffff167f9f6b4cced64244a64465098f682029975b1614400b96bc6bd12c668083719166346040516103c79190610678565b60405180910390a350565b60015481565b6003602052815f5260405f20602052805f5260405f205f91509150505481565b60025f9054906101000a900460ff1681565b5f8054906101000a900473ffffffffffffffffffffffffffffffffffffffff1681565b600260019054906101000a900460ff1681565b5f8054906101000a900473ffffffffffffffffffffffffffffffffffffffff1673ffffffffffffffffffffffffffffffffffffffff163373ffffffffffffffffffffffffffffffffffffffff16146104cd576040517f08c379a00000000000000000000000000000000000000000000000000000000081526004016104c4906109e6565b60405180910390fd5b600154421015610512576040517f08c379a000000000000000000000000000000000000000000000000000000000815260040161050990610a4e565b60405180910390fd5b600260019054906101000a900460ff1615610562576040517f08c379a000000000000000000000000000000000000000000000000000000000815260040161055990610adc565b60405180910390fd5b806002806101000a81548160ff0219169083600181111561058657610585610784565b5b02179055506001600260016101000a81548160ff0219169083151502179055508060018111156105b9576105b8610784565b5b7f9645c21c88247fe435e894197ccf051358d78c4211a1790b357c84658a44679660405160405180910390a250565b6004602052805f5260405f205f915090505481565b60028054906101000a900460ff1681565b5f80fd5b6002811061061e575f80fd5b50565b5f8135905061062f81610612565b92915050565b5f6020828403121561064a5761064961060e565b5b5f61065784828501610621565b91505092915050565b5f819050919050565b61067281610660565b82525050565b5f60208201905061068b5f830184610669565b92915050565b5f73ffffffffffffffffffffffffffffffffffffffff82169050919050565b5f6106ba82610691565b9050919050565b6106ca816106b0565b81146106d4575f80fd5b50565b5f813590506106e5816106c1565b92915050565b5f80604083850312156107015761070061060e565b5b5f61070e858286016106d7565b925050602061071f85828601610621565b9150509250929050565b5f8115159050919050565b61073d81610729565b82525050565b5f6020820190506107565f830184610734565b92915050565b610765816106b0565b82525050565b5f60208201905061077e5f83018461075c565b92915050565b7f4e487b71000000000000000000000000000000000000000000000000000000005f52602160045260245ffd5b600281106107c2576107c1610784565b5b50565b5f8190506107d2826107b1565b919050565b5f6107e1826107c5565b9050919050565b6107f1816107d7565b82525050565b5f60208201905061080a5f8301846107e8565b92915050565b5f82825260208201905092915050565b7f42657474696e6720706572696f642068617320656e64656400000000000000005f82015250565b5f610854601883610810565b915061085f82610820565b602082019050919050565b5f6020820190508181035f83015261088181610848565b9050919050565b7f42657420616d6f756e74206d7573742062652067726561746572207468616e205f8201527f3000000000000000000000000000000000000000000000000000000000000000602082015250565b5f6108e2602183610810565b91506108ed82610888565b604082019050919050565b5f6020820190508181035f83015261090f816108d6565b9050919050565b7f4e487b71000000000000000000000000000000000000000000000000000000005f52601160045260245ffd5b5f61094d82610660565b915061095883610660565b92508282019050808211156109705761096f610916565b5b92915050565b7f4f6e6c7920746865206f776e65722063616e2063616c6c20746869732066756e5f8201527f6374696f6e000000000000000000000000000000000000000000000000000000602082015250565b5f6109d0602583610810565b91506109db82610976565b604082019050919050565b5f6020820190508181035f8301526109fd816109c4565b9050919050565b7f42657474696e6720706572696f6420686173206e6f7420656e646564000000005f82015250565b5f610a38601c83610810565b9150610a4382610a04565b602082019050919050565b5f6020820190508181035f830152610a6581610a2c565b9050919050565b7f456c656374696f6e2068617320616c7265616479206265656e207265736f6c765f8201527f6564000000000000000000000000000000000000000000000000000000000000602082015250565b5f610ac6602283610810565b9150610ad182610a6c565b604082019050919050565b5f6020820190508181035f830152610af381610aba565b905091905056fea2646970667358221220351bde968e5ce0744b978f992860ea46f07f3aa8370be151d46fe941c92f002164736f6c63430008150033",
  "immutableReferences": {},
  "source": "// SPDX-License-Identifier: MIT\npragma solidity ^0.8.0;\n\ncontract ElectionBetting {\n  enum Outcome { Democrat, Republican }\n\n  address public owner;\n  uint public bettingEndDateTime;\n  bool public bettingEnded;\n  bool public electionResolved;\n  Outcome public winner;\n\n  mapping(address => mapping(Outcome => uint)) public bets;\n  mapping(Outcome => uint) public totalBets;\n\n  event BetPlaced(address indexed better, Outcome indexed outcome, uint amount);\n  event ElectionResolved(Outcome indexed winner);\n\n  constructor(uint _bettingEndDateTime) {\n    owner = msg.sender;\n    bettingEndDateTime = _bettingEndDateTime;\n  }\n\n  modifier onlyOwner() {\n    require(msg.sender == owner, \"Only the owner can call this function\");\n    _;\n  }\n\n  modifier bettingOpen() {\n    require(block.timestamp < bettingEndDateTime, \"Betting period has ended\");\n    _;\n  }\n\n  function placeBet(Outcome _outcome) external payable bettingOpen {\n    require(msg.value > 0, \"Bet amount must be greater than 0\");\n\n    bets[msg.sender][_outcome] += msg.value;\n    totalBets[_outcome] += msg.value;\n\n    emit BetPlaced(msg.sender, _outcome, msg.value);\n  }\n\n  function resolveElection(Outcome _winner) external onlyOwner {\n    require(block.timestamp >= bettingEndDateTime, \"Betting period has not ended\");\n    require(!electionResolved, \"Election has already been resolved\");\n\n    winner = _winner;\n    electionResolved = true;\n\n    emit ElectionResolved(_winner);\n  }\n\n  // TODO: Implement function for users to claim winnings\n  // TODO: Implement function to calculate and update odds\n  // TODO: Implement function to get current betting odds\n\n}\n",
  "sourcePath": "/Users/seyithan/Documents/me.seyithan/us-election-betting/contracts/ElectionBetting.sol",
  "compiler": {
    "name": "solc",
    "version": "0.8.21+commit.d9974bed.Emscripten.clang"
  },
  "schemaVersion": "3.4.16",
  "updatedAt": "2024-07-26T23:05:49.911Z",
  "networkType": "ethereum",
  "devdoc": {
    "kind": "dev",
    "methods": {},
    "version": 1
  },
  "userdoc": {
    "kind": "user",
    "methods": {},
    "version": 1
  }
}